{
  "_format": "hh-sol-artifact-1",
  "contractName": "ProxyLocation",
  "sourceName": "contracts/ProxyLocation.sol",
  "abi": [
    {
      "inputs": [
        {
          "internalType": "address",
          "name": "_paymentToken",
          "type": "address"
        }
      ],
      "stateMutability": "nonpayable",
      "type": "constructor"
    },
    {
      "inputs": [],
      "name": "ECDSAInvalidSignature",
      "type": "error"
    },
    {
      "inputs": [
        {
          "internalType": "uint256",
          "name": "length",
          "type": "uint256"
        }
      ],
      "name": "ECDSAInvalidSignatureLength",
      "type": "error"
    },
    {
      "inputs": [
        {
          "internalType": "bytes32",
          "name": "s",
          "type": "bytes32"
        }
      ],
      "name": "ECDSAInvalidSignatureS",
      "type": "error"
    },
    {
      "inputs": [],
      "name": "InvalidShortString",
      "type": "error"
    },
    {
      "inputs": [],
      "name": "SignerNotMessageSender",
      "type": "error"
    },
    {
      "inputs": [],
      "name": "SignerNotOwner",
      "type": "error"
    },
    {
      "inputs": [
        {
          "internalType": "string",
          "name": "str",
          "type": "string"
        }
      ],
      "name": "StringTooLong",
      "type": "error"
    },
    {
      "anonymous": false,
      "inputs": [
        {
          "indexed": true,
          "internalType": "address",
          "name": "client",
          "type": "address"
        },
        {
          "indexed": false,
          "internalType": "uint256",
          "name": "serverID",
          "type": "uint256"
        },
        {
          "indexed": false,
          "internalType": "uint256",
          "name": "amount",
          "type": "uint256"
        }
      ],
      "name": "ClientPaidForServer",
      "type": "event"
    },
    {
      "anonymous": false,
      "inputs": [],
      "name": "EIP712DomainChanged",
      "type": "event"
    },
    {
      "inputs": [
        {
          "internalType": "address",
          "name": "",
          "type": "address"
        }
      ],
      "name": "_admin",
      "outputs": [
        {
          "internalType": "bool",
          "name": "",
          "type": "bool"
        }
      ],
      "stateMutability": "view",
      "type": "function"
    },
    {
      "inputs": [],
      "name": "_currServerCount",
      "outputs": [
        {
          "internalType": "uint256",
          "name": "",
          "type": "uint256"
        }
      ],
      "stateMutability": "view",
      "type": "function"
    },
    {
      "inputs": [
        {
          "internalType": "uint256",
          "name": "",
          "type": "uint256"
        },
        {
          "internalType": "address",
          "name": "",
          "type": "address"
        }
      ],
      "name": "_serverClientList",
      "outputs": [
        {
          "internalType": "address",
          "name": "clientAddress",
          "type": "address"
        },
        {
          "internalType": "euint8",
          "name": "firstOctet",
          "type": "uint256"
        },
        {
          "internalType": "euint8",
          "name": "secondOctet",
          "type": "uint256"
        },
        {
          "internalType": "euint8",
          "name": "thirdOctet",
          "type": "uint256"
        },
        {
          "internalType": "euint8",
          "name": "fourthOctet",
          "type": "uint256"
        },
        {
          "internalType": "uint256",
          "name": "paidForServerID",
          "type": "uint256"
        },
        {
          "internalType": "uint8",
          "name": "addedToWhitelist",
          "type": "uint8"
        }
      ],
      "stateMutability": "view",
      "type": "function"
    },
    {
      "inputs": [
        {
          "internalType": "uint256",
          "name": "",
          "type": "uint256"
        }
      ],
      "name": "_serverCountryList",
      "outputs": [
        {
          "internalType": "string",
          "name": "",
          "type": "string"
        }
      ],
      "stateMutability": "view",
      "type": "function"
    },
    {
      "inputs": [
        {
          "internalType": "uint256",
          "name": "",
          "type": "uint256"
        }
      ],
      "name": "_serverList",
      "outputs": [
        {
          "internalType": "address",
          "name": "walletCreator",
          "type": "address"
        },
        {
          "internalType": "uint256",
          "name": "serverID",
          "type": "uint256"
        },
        {
          "internalType": "euint8",
          "name": "firstOctet",
          "type": "uint256"
        },
        {
          "internalType": "euint8",
          "name": "secondOctet",
          "type": "uint256"
        },
        {
          "internalType": "euint8",
          "name": "thirdOctet",
          "type": "uint256"
        },
        {
          "internalType": "euint8",
          "name": "fourthOctet",
          "type": "uint256"
        },
        {
          "internalType": "uint128",
          "name": "costToLoan",
          "type": "uint128"
        },
        {
          "internalType": "euint128",
          "name": "currentAmountReceived",
          "type": "uint256"
        }
      ],
      "stateMutability": "view",
      "type": "function"
    },
    {
      "inputs": [
        {
          "internalType": "address",
          "name": "",
          "type": "address"
        },
        {
          "internalType": "uint256",
          "name": "",
          "type": "uint256"
        }
      ],
      "name": "_serverOwnerToServer",
      "outputs": [
        {
          "internalType": "uint256",
          "name": "",
          "type": "uint256"
        }
      ],
      "stateMutability": "view",
      "type": "function"
    },
    {
      "inputs": [
        {
          "components": [
            {
              "internalType": "bytes",
              "name": "data",
              "type": "bytes"
            }
          ],
          "internalType": "struct inEuint8",
          "name": "_firstOctet",
          "type": "tuple"
        },
        {
          "components": [
            {
              "internalType": "bytes",
              "name": "data",
              "type": "bytes"
            }
          ],
          "internalType": "struct inEuint8",
          "name": "_secondOctet",
          "type": "tuple"
        },
        {
          "components": [
            {
              "internalType": "bytes",
              "name": "data",
              "type": "bytes"
            }
          ],
          "internalType": "struct inEuint8",
          "name": "_thirdOctet",
          "type": "tuple"
        },
        {
          "components": [
            {
              "internalType": "bytes",
              "name": "data",
              "type": "bytes"
            }
          ],
          "internalType": "struct inEuint8",
          "name": "_fourthOctet",
          "type": "tuple"
        },
        {
          "internalType": "uint128",
          "name": "_costToLoan",
          "type": "uint128"
        },
        {
          "internalType": "string",
          "name": "_countryServerIsIn",
          "type": "string"
        }
      ],
      "name": "addServer",
      "outputs": [],
      "stateMutability": "nonpayable",
      "type": "function"
    },
    {
      "inputs": [
        {
          "internalType": "uint256",
          "name": "_serverID",
          "type": "uint256"
        },
        {
          "internalType": "address",
          "name": "_clientAddr",
          "type": "address"
        }
      ],
      "name": "approveClientToViewServer",
      "outputs": [],
      "stateMutability": "nonpayable",
      "type": "function"
    },
    {
      "inputs": [],
      "name": "eip712Domain",
      "outputs": [
        {
          "internalType": "bytes1",
          "name": "fields",
          "type": "bytes1"
        },
        {
          "internalType": "string",
          "name": "name",
          "type": "string"
        },
        {
          "internalType": "string",
          "name": "version",
          "type": "string"
        },
        {
          "internalType": "uint256",
          "name": "chainId",
          "type": "uint256"
        },
        {
          "internalType": "address",
          "name": "verifyingContract",
          "type": "address"
        },
        {
          "internalType": "bytes32",
          "name": "salt",
          "type": "bytes32"
        },
        {
          "internalType": "uint256[]",
          "name": "extensions",
          "type": "uint256[]"
        }
      ],
      "stateMutability": "view",
      "type": "function"
    },
    {
      "inputs": [
        {
          "internalType": "uint256",
          "name": "_serverID",
          "type": "uint256"
        },
        {
          "components": [
            {
              "internalType": "bytes",
              "name": "data",
              "type": "bytes"
            }
          ],
          "internalType": "struct inEuint8",
          "name": "_firstOctet",
          "type": "tuple"
        },
        {
          "components": [
            {
              "internalType": "bytes",
              "name": "data",
              "type": "bytes"
            }
          ],
          "internalType": "struct inEuint8",
          "name": "_secondOctet",
          "type": "tuple"
        },
        {
          "components": [
            {
              "internalType": "bytes",
              "name": "data",
              "type": "bytes"
            }
          ],
          "internalType": "struct inEuint8",
          "name": "_thirdOctet",
          "type": "tuple"
        },
        {
          "components": [
            {
              "internalType": "bytes",
              "name": "data",
              "type": "bytes"
            }
          ],
          "internalType": "struct inEuint8",
          "name": "_fourthOctet",
          "type": "tuple"
        },
        {
          "internalType": "uint128",
          "name": "_costToLoan",
          "type": "uint128"
        }
      ],
      "name": "modifyServerDetails",
      "outputs": [],
      "stateMutability": "nonpayable",
      "type": "function"
    },
    {
      "inputs": [
        {
          "components": [
            {
              "internalType": "bytes",
              "name": "data",
              "type": "bytes"
            }
          ],
          "internalType": "struct inEuint8",
          "name": "_firstOctet",
          "type": "tuple"
        },
        {
          "components": [
            {
              "internalType": "bytes",
              "name": "data",
              "type": "bytes"
            }
          ],
          "internalType": "struct inEuint8",
          "name": "_secondOctet",
          "type": "tuple"
        },
        {
          "components": [
            {
              "internalType": "bytes",
              "name": "data",
              "type": "bytes"
            }
          ],
          "internalType": "struct inEuint8",
          "name": "_thirdOctet",
          "type": "tuple"
        },
        {
          "components": [
            {
              "internalType": "bytes",
              "name": "data",
              "type": "bytes"
            }
          ],
          "internalType": "struct inEuint8",
          "name": "_fourthOctet",
          "type": "tuple"
        },
        {
          "internalType": "uint256",
          "name": "_serverRequested",
          "type": "uint256"
        }
      ],
      "name": "payServerForAccess",
      "outputs": [],
      "stateMutability": "nonpayable",
      "type": "function"
    },
    {
      "inputs": [],
      "name": "paymentToken",
      "outputs": [
        {
          "internalType": "contract IERC20",
          "name": "",
          "type": "address"
        }
      ],
      "stateMutability": "view",
      "type": "function"
    },
    {
      "inputs": [
        {
          "internalType": "uint256",
          "name": "serverID",
          "type": "uint256"
        },
        {
          "internalType": "address",
          "name": "_clientAddress",
          "type": "address"
        },
        {
          "components": [
            {
              "internalType": "bytes32",
              "name": "publicKey",
              "type": "bytes32"
            },
            {
              "internalType": "bytes",
              "name": "signature",
              "type": "bytes"
            }
          ],
          "internalType": "struct Permission",
          "name": "perm",
          "type": "tuple"
        }
      ],
      "name": "retrieveClientInfoFirstOctet",
      "outputs": [
        {
          "internalType": "string",
          "name": "",
          "type": "string"
        }
      ],
      "stateMutability": "view",
      "type": "function"
    },
    {
      "inputs": [
        {
          "internalType": "uint256",
          "name": "serverID",
          "type": "uint256"
        },
        {
          "internalType": "address",
          "name": "_clientAddress",
          "type": "address"
        },
        {
          "components": [
            {
              "internalType": "bytes32",
              "name": "publicKey",
              "type": "bytes32"
            },
            {
              "internalType": "bytes",
              "name": "signature",
              "type": "bytes"
            }
          ],
          "internalType": "struct Permission",
          "name": "perm",
          "type": "tuple"
        }
      ],
      "name": "retrieveClientInfoFourthOctet",
      "outputs": [
        {
          "internalType": "string",
          "name": "",
          "type": "string"
        }
      ],
      "stateMutability": "view",
      "type": "function"
    },
    {
      "inputs": [
        {
          "internalType": "uint256",
          "name": "serverID",
          "type": "uint256"
        },
        {
          "internalType": "address",
          "name": "_clientAddress",
          "type": "address"
        },
        {
          "components": [
            {
              "internalType": "bytes32",
              "name": "publicKey",
              "type": "bytes32"
            },
            {
              "internalType": "bytes",
              "name": "signature",
              "type": "bytes"
            }
          ],
          "internalType": "struct Permission",
          "name": "perm",
          "type": "tuple"
        }
      ],
      "name": "retrieveClientInfoSecondOctet",
      "outputs": [
        {
          "internalType": "string",
          "name": "",
          "type": "string"
        }
      ],
      "stateMutability": "view",
      "type": "function"
    },
    {
      "inputs": [
        {
          "internalType": "uint256",
          "name": "serverID",
          "type": "uint256"
        },
        {
          "internalType": "address",
          "name": "_clientAddress",
          "type": "address"
        },
        {
          "components": [
            {
              "internalType": "bytes32",
              "name": "publicKey",
              "type": "bytes32"
            },
            {
              "internalType": "bytes",
              "name": "signature",
              "type": "bytes"
            }
          ],
          "internalType": "struct Permission",
          "name": "perm",
          "type": "tuple"
        }
      ],
      "name": "retrieveClientInfoThirdOctet",
      "outputs": [
        {
          "internalType": "string",
          "name": "",
          "type": "string"
        }
      ],
      "stateMutability": "view",
      "type": "function"
    },
    {
      "inputs": [
        {
          "internalType": "uint256",
          "name": "serverID",
          "type": "uint256"
        },
        {
          "components": [
            {
              "internalType": "bytes32",
              "name": "publicKey",
              "type": "bytes32"
            },
            {
              "internalType": "bytes",
              "name": "signature",
              "type": "bytes"
            }
          ],
          "internalType": "struct Permission",
          "name": "perm",
          "type": "tuple"
        }
      ],
      "name": "retrieveServerInfoFirstOctet",
      "outputs": [
        {
          "internalType": "string",
          "name": "",
          "type": "string"
        }
      ],
      "stateMutability": "view",
      "type": "function"
    },
    {
      "inputs": [
        {
          "internalType": "uint256",
          "name": "serverID",
          "type": "uint256"
        },
        {
          "components": [
            {
              "internalType": "bytes32",
              "name": "publicKey",
              "type": "bytes32"
            },
            {
              "internalType": "bytes",
              "name": "signature",
              "type": "bytes"
            }
          ],
          "internalType": "struct Permission",
          "name": "perm",
          "type": "tuple"
        }
      ],
      "name": "retrieveServerInfoFourthOctet",
      "outputs": [
        {
          "internalType": "string",
          "name": "",
          "type": "string"
        }
      ],
      "stateMutability": "view",
      "type": "function"
    },
    {
      "inputs": [
        {
          "internalType": "uint256",
          "name": "serverID",
          "type": "uint256"
        },
        {
          "components": [
            {
              "internalType": "bytes32",
              "name": "publicKey",
              "type": "bytes32"
            },
            {
              "internalType": "bytes",
              "name": "signature",
              "type": "bytes"
            }
          ],
          "internalType": "struct Permission",
          "name": "perm",
          "type": "tuple"
        }
      ],
      "name": "retrieveServerInfoSecondOctet",
      "outputs": [
        {
          "internalType": "string",
          "name": "",
          "type": "string"
        }
      ],
      "stateMutability": "view",
      "type": "function"
    },
    {
      "inputs": [
        {
          "internalType": "uint256",
          "name": "serverID",
          "type": "uint256"
        },
        {
          "components": [
            {
              "internalType": "bytes32",
              "name": "publicKey",
              "type": "bytes32"
            },
            {
              "internalType": "bytes",
              "name": "signature",
              "type": "bytes"
            }
          ],
          "internalType": "struct Permission",
          "name": "perm",
          "type": "tuple"
        }
      ],
      "name": "retrieveServerInfoThirdOctet",
      "outputs": [
        {
          "internalType": "string",
          "name": "",
          "type": "string"
        }
      ],
      "stateMutability": "view",
      "type": "function"
    },
    {
      "inputs": [
        {
          "internalType": "uint256",
          "name": "_serverID",
          "type": "uint256"
        }
      ],
      "name": "withdrawFunds",
      "outputs": [],
      "stateMutability": "nonpayable",
      "type": "function"
    }
  ],
  "bytecode": "0x6101806040523480156200001257600080fd5b50604051620053663803806200536683398181016040528101906200003891906200037e565b6040518060400160405280601181526020017f4668656e6978205065726d697373696f6e0000000000000000000000000000008152506040518060400160405280600381526020017f312e300000000000000000000000000000000000000000000000000000000000815250620000ba600083620001e860201b90919060201c565b6101208181525050620000d8600182620001e860201b90919060201c565b6101408181525050818051906020012060e08181525050808051906020012061010081815250504660a08181525050620001176200024060201b60201c565b608081815250503073ffffffffffffffffffffffffffffffffffffffff1660c08173ffffffffffffffffffffffffffffffffffffffff168152505050508073ffffffffffffffffffffffffffffffffffffffff166101608173ffffffffffffffffffffffffffffffffffffffff16815250506001600360003373ffffffffffffffffffffffffffffffffffffffff1673ffffffffffffffffffffffffffffffffffffffff16815260200190815260200160002060006101000a81548160ff0219169083151502179055505062000900565b60006020835110156200020e5762000206836200029d60201b60201c565b90506200023a565b8262000220836200030a60201b60201c565b60000190816200023191906200062a565b5060ff60001b90505b92915050565b60007f8b73c3c69bb8fe3d512ecc4cf759cc79239f7b179b0ffacaa9a75d522b39400f60e051610100514630604051602001620002829594939291906200074e565b60405160208183030381529060405280519060200120905090565b600080829050601f81511115620002ed57826040517f305a27a9000000000000000000000000000000000000000000000000000000008152600401620002e491906200083a565b60405180910390fd5b805181620002fb9062000890565b60001c1760001b915050919050565b6000819050919050565b600080fd5b600073ffffffffffffffffffffffffffffffffffffffff82169050919050565b6000620003468262000319565b9050919050565b620003588162000339565b81146200036457600080fd5b50565b60008151905062000378816200034d565b92915050565b60006020828403121562000397576200039662000314565b5b6000620003a78482850162000367565b91505092915050565b600081519050919050565b7f4e487b7100000000000000000000000000000000000000000000000000000000600052604160045260246000fd5b7f4e487b7100000000000000000000000000000000000000000000000000000000600052602260045260246000fd5b600060028204905060018216806200043257607f821691505b602082108103620004485762000447620003ea565b5b50919050565b60008190508160005260206000209050919050565b60006020601f8301049050919050565b600082821b905092915050565b600060088302620004b27fffffffffffffffffffffffffffffffffffffffffffffffffffffffffffffffff8262000473565b620004be868362000473565b95508019841693508086168417925050509392505050565b6000819050919050565b6000819050919050565b60006200050b62000505620004ff84620004d6565b620004e0565b620004d6565b9050919050565b6000819050919050565b6200052783620004ea565b6200053f620005368262000512565b84845462000480565b825550505050565b600090565b6200055662000547565b620005638184846200051c565b505050565b5b818110156200058b576200057f6000826200054c565b60018101905062000569565b5050565b601f821115620005da57620005a4816200044e565b620005af8462000463565b81016020851015620005bf578190505b620005d7620005ce8562000463565b83018262000568565b50505b505050565b600082821c905092915050565b6000620005ff60001984600802620005df565b1980831691505092915050565b60006200061a8383620005ec565b9150826002028217905092915050565b6200063582620003b0565b67ffffffffffffffff811115620006515762000650620003bb565b5b6200065d825462000419565b6200066a8282856200058f565b600060209050601f831160018114620006a257600084156200068d578287015190505b6200069985826200060c565b86555062000709565b601f198416620006b2866200044e565b60005b82811015620006dc57848901518255600182019150602085019450602081019050620006b5565b86831015620006fc5784890151620006f8601f891682620005ec565b8355505b6001600288020188555050505b505050505050565b6000819050919050565b620007268162000711565b82525050565b6200073781620004d6565b82525050565b620007488162000339565b82525050565b600060a0820190506200076560008301886200071b565b6200077460208301876200071b565b6200078360408301866200071b565b6200079260608301856200072c565b620007a160808301846200073d565b9695505050505050565b600082825260208201905092915050565b60005b83811015620007dc578082015181840152602081019050620007bf565b60008484015250505050565b6000601f19601f8301169050919050565b60006200080682620003b0565b620008128185620007ab565b935062000824818560208601620007bc565b6200082f81620007e8565b840191505092915050565b60006020820190508181036000830152620008568184620007f9565b905092915050565b600081519050919050565b6000819050602082019050919050565b600062000887825162000711565b80915050919050565b60006200089d826200085e565b82620008a98462000869565b9050620008b68162000879565b92506020821015620008f957620008f47fffffffffffffffffffffffffffffffffffffffffffffffffffffffffffffffff8360200360080262000473565b831692505b5050919050565b60805160a05160c05160e051610100516101205161014051610160516149f262000974600039600081816105d20152818161095a0152610cb9015260006126f3015260006126b801526000612d7601526000612d550152600061283f01526000612895015260006128be01526149f26000f3fe608060405234801561001057600080fd5b50600436106101375760003560e01c806385ee84a5116100b8578063aeb1522f1161007c578063aeb1522f14610393578063b4ce624c146103c3578063c130f6db146103df578063ce11236a1461040f578063df3e248d1461043f578063f5dbe6311461046f57610137565b806385ee84a5146102ae5780638dce60a8146102de57806398a78cd2146102fc578063a47e19001461032c578063a72bd2901461036357610137565b806332d2b31d116100ff57806332d2b31d146101f2578063414c9b681461022257806347bc007b1461023e57806349a8e8a41461025a57806384b0196e1461028a57610137565b8063155dd5ee1461013c5780631a1e6423146101585780631fd34831146101885780632164d0bd146101a45780633013ce29146101d4575b600080fd5b61015660048036038101906101519190613070565b6104a5565b005b610172600480360381019061016d919061328f565b6106c5565b60405161017f919061336a565b60405180910390f35b6101a2600480360381019061019d91906133e4565b6108bd565b005b6101be60048036038101906101b99190613070565b610c17565b6040516101cb919061336a565b60405180910390f35b6101dc610cb7565b6040516101e9919061354e565b60405180910390f35b61020c600480360381019061020791906135a7565b610cdb565b60405161021991906135f6565b60405180910390f35b61023c600480360381019061023791906136fa565b610d0c565b005b61025860048036038101906102539190613813565b610fc8565b005b610274600480360381019061026f9190613910565b6111c9565b604051610281919061336a565b60405180910390f35b610292611443565b6040516102a59796959493929190613a96565b60405180910390f35b6102c860048036038101906102c3919061328f565b6114ed565b6040516102d5919061336a565b60405180910390f35b6102e66116e5565b6040516102f391906135f6565b60405180910390f35b61031660048036038101906103119190613b1a565b6116eb565b6040516103239190613b62565b60405180910390f35b61034660048036038101906103419190613070565b61170b565b60405161035a989796959493929190613bcc565b60405180910390f35b61037d60048036038101906103789190613910565b61178f565b60405161038a919061336a565b60405180910390f35b6103ad60048036038101906103a8919061328f565b611a09565b6040516103ba919061336a565b60405180910390f35b6103dd60048036038101906103d89190613c4a565b611c01565b005b6103f960048036038101906103f4919061328f565b611d66565b604051610406919061336a565b60405180910390f35b61042960048036038101906104249190613910565b611f5e565b604051610436919061336a565b60405180910390f35b61045960048036038101906104549190613910565b6121d8565b604051610466919061336a565b60405180910390f35b61048960048036038101906104849190613c4a565b612452565b60405161049c9796959493929190613ca6565b60405180910390f35b60025481106104e9576040517f08c379a00000000000000000000000000000000000000000000000000000000081526004016104e090613d61565b60405180910390fd5b60006005600083815260200190815260200160002090503373ffffffffffffffffffffffffffffffffffffffff168160000160009054906101000a900473ffffffffffffffffffffffffffffffffffffffff1673ffffffffffffffffffffffffffffffffffffffff1614610592576040517f08c379a000000000000000000000000000000000000000000000000000000000815260040161058990613df3565b60405180910390fd5b60006105a182600701546124ce565b90506000816fffffffffffffffffffffffffffffffff1611156106c0576105c86000612591565b82600701819055507f000000000000000000000000000000000000000000000000000000000000000073ffffffffffffffffffffffffffffffffffffffff1663a9059cbb33836fffffffffffffffffffffffffffffffff166040518363ffffffff1660e01b815260040161063d929190613e13565b6020604051808303816000875af115801561065c573d6000803e3d6000fd5b505050506040513d601f19601f820116820180604052508101906106809190613e68565b6106bf576040517f08c379a00000000000000000000000000000000000000000000000000000000081526004016106b690613ee1565b60405180910390fd5b5b505050565b606081600061071f7f6bdaeb2d29561f159c7ef98b16b27015fb2aeb87209c7ee656226d912f59927d8360000151604051602001610704929190613f01565b604051602081830303815290604052805190602001206125a5565b905060006107318284602001516125bf565b90503373ffffffffffffffffffffffffffffffffffffffff168173ffffffffffffffffffffffffffffffffffffffff1614610798576040517f3093a27700000000000000000000000000000000000000000000000000000000815260040160405180910390fd5b60025486106107dc576040517f08c379a00000000000000000000000000000000000000000000000000000000081526004016107d390613d61565b60405180910390fd5b600060056000888152602001908152602001600020905060006007600089815260200190815260200160002060003373ffffffffffffffffffffffffffffffffffffffff1673ffffffffffffffffffffffffffffffffffffffff168152602001908152602001600020905060018160060160009054906101000a900460ff1660ff161461089e576040517f08c379a000000000000000000000000000000000000000000000000000000000815260040161089590613f76565b60405180910390fd5b6108b0826003015488600001516125eb565b9550505050505092915050565b6002548110610901576040517f08c379a00000000000000000000000000000000000000000000000000000000081526004016108f890613d61565b60405180910390fd5b600060056000838152602001908152602001600020905060008160060160009054906101000a90046fffffffffffffffffffffffffffffffff1690506000816fffffffffffffffffffffffffffffffff161115610a4a577f000000000000000000000000000000000000000000000000000000000000000073ffffffffffffffffffffffffffffffffffffffff166323b872dd3330846fffffffffffffffffffffffffffffffff166040518463ffffffff1660e01b81526004016109c793929190613f96565b6020604051808303816000875af11580156109e6573d6000803e3d6000fd5b505050506040513d601f19601f82011682018060405250810190610a0a9190613e68565b610a49576040517f08c379a0000000000000000000000000000000000000000000000000000000008152600401610a4090614019565b60405180910390fd5b5b6000610a5588612621565b90506000610a6288612621565b90506000610a6f88612621565b90506000610a7c88612621565b905060006040518060e001604052803373ffffffffffffffffffffffffffffffffffffffff168152602001868152602001858152602001848152602001838152602001898152602001600060ff16815250905080600760008a815260200190815260200160002060003373ffffffffffffffffffffffffffffffffffffffff1673ffffffffffffffffffffffffffffffffffffffff16815260200190815260200160002060008201518160000160006101000a81548173ffffffffffffffffffffffffffffffffffffffff021916908373ffffffffffffffffffffffffffffffffffffffff1602179055506020820151816001015560408201518160020155606082015181600301556080820151816004015560a0820151816005015560c08201518160060160006101000a81548160ff021916908360ff1602179055509050506000866fffffffffffffffffffffffffffffffff161115610c0957610c008760070154610bfb886fffffffffffffffffffffffffffffffff16612591565b612637565b87600701819055505b505050505050505050505050565b60046020528060005260406000206000915090508054610c3690614068565b80601f0160208091040260200160405190810160405280929190818152602001828054610c6290614068565b8015610caf5780601f10610c8457610100808354040283529160200191610caf565b820191906000526020600020905b815481529060010190602001808311610c9257829003601f168201915b505050505081565b7f000000000000000000000000000000000000000000000000000000000000000081565b60066020528160005260406000208181548110610cf757600080fd5b90600052602060002001600091509150505481565b600360003373ffffffffffffffffffffffffffffffffffffffff1673ffffffffffffffffffffffffffffffffffffffff16815260200190815260200160002060009054906101000a900460ff16610d98576040517f08c379a0000000000000000000000000000000000000000000000000000000008152600401610d8f906140e5565b60405180910390fd5b6000610da387612621565b90506000610db087612621565b90506000610dbd87612621565b90506000610dca87612621565b905060006040518061010001604052803373ffffffffffffffffffffffffffffffffffffffff1681526020016002548152602001868152602001858152602001848152602001838152602001886fffffffffffffffffffffffffffffffff168152602001610e386000612591565b81525090508060056000600254815260200190815260200160002060008201518160000160006101000a81548173ffffffffffffffffffffffffffffffffffffffff021916908373ffffffffffffffffffffffffffffffffffffffff1602179055506020820151816001015560408201518160020155606082015181600301556080820151816004015560a0820151816005015560c08201518160060160006101000a8154816fffffffffffffffffffffffffffffffff02191690836fffffffffffffffffffffffffffffffff16021790555060e08201518160070155905050856004600060025481526020019081526020016000209081610f3a9190614285565b50600660003373ffffffffffffffffffffffffffffffffffffffff1673ffffffffffffffffffffffffffffffffffffffff168152602001908152602001600020600254908060018154018082558091505060019003906000526020600020016000909190919091505560026000815480929190610fb690614386565b91905055505050505050505050505050565b600360003373ffffffffffffffffffffffffffffffffffffffff1673ffffffffffffffffffffffffffffffffffffffff16815260200190815260200160002060009054906101000a900460ff16611054576040517f08c379a000000000000000000000000000000000000000000000000000000000815260040161104b906140e5565b60405180910390fd5b6002548610611098576040517f08c379a000000000000000000000000000000000000000000000000000000000815260040161108f90613d61565b60405180910390fd5b60006005600088815260200190815260200160002090503373ffffffffffffffffffffffffffffffffffffffff168160000160009054906101000a900473ffffffffffffffffffffffffffffffffffffffff1673ffffffffffffffffffffffffffffffffffffffff1614611141576040517f08c379a000000000000000000000000000000000000000000000000000000000815260040161113890614440565b60405180910390fd5b61114a86612621565b816002018190555061115b85612621565b816003018190555061116c84612621565b816004018190555061117d83612621565b8160050181905550818160060160006101000a8154816fffffffffffffffffffffffffffffffff02191690836fffffffffffffffffffffffffffffffff16021790555050505050505050565b60608160006112237f6bdaeb2d29561f159c7ef98b16b27015fb2aeb87209c7ee656226d912f59927d8360000151604051602001611208929190613f01565b604051602081830303815290604052805190602001206125a5565b905060006112358284602001516125bf565b90503373ffffffffffffffffffffffffffffffffffffffff168173ffffffffffffffffffffffffffffffffffffffff161461129c576040517f3093a27700000000000000000000000000000000000000000000000000000000815260040160405180910390fd5b60025487106112e0576040517f08c379a00000000000000000000000000000000000000000000000000000000081526004016112d790613d61565b60405180910390fd5b60006005600089815260200190815260200160002090503373ffffffffffffffffffffffffffffffffffffffff168160000160009054906101000a900473ffffffffffffffffffffffffffffffffffffffff1673ffffffffffffffffffffffffffffffffffffffff1614611389576040517f08c379a0000000000000000000000000000000000000000000000000000000008152600401611380906144d2565b60405180910390fd5b6000600760008a815260200190815260200160002060008973ffffffffffffffffffffffffffffffffffffffff1673ffffffffffffffffffffffffffffffffffffffff168152602001908152602001600020905088816005015414611423576040517f08c379a000000000000000000000000000000000000000000000000000000000815260040161141a9061453e565b60405180910390fd5b611435816003015488600001516125eb565b955050505050509392505050565b6000606080600080600060606114576126af565b61145f6126ea565b46306000801b600067ffffffffffffffff8111156114805761147f6130b3565b5b6040519080825280602002602001820160405280156114ae5781602001602082028036833780820191505090505b507f0f00000000000000000000000000000000000000000000000000000000000000959493929190965096509650965096509650965090919293949596565b60608160006115477f6bdaeb2d29561f159c7ef98b16b27015fb2aeb87209c7ee656226d912f59927d836000015160405160200161152c929190613f01565b604051602081830303815290604052805190602001206125a5565b905060006115598284602001516125bf565b90503373ffffffffffffffffffffffffffffffffffffffff168173ffffffffffffffffffffffffffffffffffffffff16146115c0576040517f3093a27700000000000000000000000000000000000000000000000000000000815260040160405180910390fd5b6002548610611604576040517f08c379a00000000000000000000000000000000000000000000000000000000081526004016115fb90613d61565b60405180910390fd5b600060056000888152602001908152602001600020905060006007600089815260200190815260200160002060003373ffffffffffffffffffffffffffffffffffffffff1673ffffffffffffffffffffffffffffffffffffffff168152602001908152602001600020905060018160060160009054906101000a900460ff1660ff16146116c6576040517f08c379a00000000000000000000000000000000000000000000000000000000081526004016116bd90613f76565b60405180910390fd5b6116d8826004015488600001516125eb565b9550505050505092915050565b60025481565b60036020528060005260406000206000915054906101000a900460ff1681565b60056020528060005260406000206000915090508060000160009054906101000a900473ffffffffffffffffffffffffffffffffffffffff16908060010154908060020154908060030154908060040154908060050154908060060160009054906101000a90046fffffffffffffffffffffffffffffffff16908060070154905088565b60608160006117e97f6bdaeb2d29561f159c7ef98b16b27015fb2aeb87209c7ee656226d912f59927d83600001516040516020016117ce929190613f01565b604051602081830303815290604052805190602001206125a5565b905060006117fb8284602001516125bf565b90503373ffffffffffffffffffffffffffffffffffffffff168173ffffffffffffffffffffffffffffffffffffffff1614611862576040517f3093a27700000000000000000000000000000000000000000000000000000000815260040160405180910390fd5b60025487106118a6576040517f08c379a000000000000000000000000000000000000000000000000000000000815260040161189d90613d61565b60405180910390fd5b60006005600089815260200190815260200160002090503373ffffffffffffffffffffffffffffffffffffffff168160000160009054906101000a900473ffffffffffffffffffffffffffffffffffffffff1673ffffffffffffffffffffffffffffffffffffffff161461194f576040517f08c379a0000000000000000000000000000000000000000000000000000000008152600401611946906144d2565b60405180910390fd5b6000600760008a815260200190815260200160002060008973ffffffffffffffffffffffffffffffffffffffff1673ffffffffffffffffffffffffffffffffffffffff1681526020019081526020016000209050888160050154146119e9576040517f08c379a00000000000000000000000000000000000000000000000000000000081526004016119e09061453e565b60405180910390fd5b6119fb816004015488600001516125eb565b955050505050509392505050565b6060816000611a637f6bdaeb2d29561f159c7ef98b16b27015fb2aeb87209c7ee656226d912f59927d8360000151604051602001611a48929190613f01565b604051602081830303815290604052805190602001206125a5565b90506000611a758284602001516125bf565b90503373ffffffffffffffffffffffffffffffffffffffff168173ffffffffffffffffffffffffffffffffffffffff1614611adc576040517f3093a27700000000000000000000000000000000000000000000000000000000815260040160405180910390fd5b6002548610611b20576040517f08c379a0000000000000000000000000000000000000000000000000000000008152600401611b1790613d61565b60405180910390fd5b600060056000888152602001908152602001600020905060006007600089815260200190815260200160002060003373ffffffffffffffffffffffffffffffffffffffff1673ffffffffffffffffffffffffffffffffffffffff168152602001908152602001600020905060018160060160009054906101000a900460ff1660ff1614611be2576040517f08c379a0000000000000000000000000000000000000000000000000000000008152600401611bd990613f76565b60405180910390fd5b611bf4826005015488600001516125eb565b9550505050505092915050565b6002548210611c45576040517f08c379a0000000000000000000000000000000000000000000000000000000008152600401611c3c90613d61565b60405180910390fd5b60006005600084815260200190815260200160002090503373ffffffffffffffffffffffffffffffffffffffff168160000160009054906101000a900473ffffffffffffffffffffffffffffffffffffffff1673ffffffffffffffffffffffffffffffffffffffff1614611cee576040517f08c379a0000000000000000000000000000000000000000000000000000000008152600401611ce5906145d0565b60405180910390fd5b60006007600085815260200190815260200160002060008473ffffffffffffffffffffffffffffffffffffffff1673ffffffffffffffffffffffffffffffffffffffff168152602001908152602001600020905060018160060160006101000a81548160ff021916908360ff16021790555050505050565b6060816000611dc07f6bdaeb2d29561f159c7ef98b16b27015fb2aeb87209c7ee656226d912f59927d8360000151604051602001611da5929190613f01565b604051602081830303815290604052805190602001206125a5565b90506000611dd28284602001516125bf565b90503373ffffffffffffffffffffffffffffffffffffffff168173ffffffffffffffffffffffffffffffffffffffff1614611e39576040517f3093a27700000000000000000000000000000000000000000000000000000000815260040160405180910390fd5b6002548610611e7d576040517f08c379a0000000000000000000000000000000000000000000000000000000008152600401611e7490613d61565b60405180910390fd5b600060056000888152602001908152602001600020905060006007600089815260200190815260200160002060003373ffffffffffffffffffffffffffffffffffffffff1673ffffffffffffffffffffffffffffffffffffffff168152602001908152602001600020905060018160060160009054906101000a900460ff1660ff1614611f3f576040517f08c379a0000000000000000000000000000000000000000000000000000000008152600401611f3690613f76565b60405180910390fd5b611f51826002015488600001516125eb565b9550505050505092915050565b6060816000611fb87f6bdaeb2d29561f159c7ef98b16b27015fb2aeb87209c7ee656226d912f59927d8360000151604051602001611f9d929190613f01565b604051602081830303815290604052805190602001206125a5565b90506000611fca8284602001516125bf565b90503373ffffffffffffffffffffffffffffffffffffffff168173ffffffffffffffffffffffffffffffffffffffff1614612031576040517f3093a27700000000000000000000000000000000000000000000000000000000815260040160405180910390fd5b6002548710612075576040517f08c379a000000000000000000000000000000000000000000000000000000000815260040161206c90613d61565b60405180910390fd5b60006005600089815260200190815260200160002090503373ffffffffffffffffffffffffffffffffffffffff168160000160009054906101000a900473ffffffffffffffffffffffffffffffffffffffff1673ffffffffffffffffffffffffffffffffffffffff161461211e576040517f08c379a0000000000000000000000000000000000000000000000000000000008152600401612115906144d2565b60405180910390fd5b6000600760008a815260200190815260200160002060008973ffffffffffffffffffffffffffffffffffffffff1673ffffffffffffffffffffffffffffffffffffffff1681526020019081526020016000209050888160050154146121b8576040517f08c379a00000000000000000000000000000000000000000000000000000000081526004016121af9061453e565b60405180910390fd5b6121ca816002015488600001516125eb565b955050505050509392505050565b60608160006122327f6bdaeb2d29561f159c7ef98b16b27015fb2aeb87209c7ee656226d912f59927d8360000151604051602001612217929190613f01565b604051602081830303815290604052805190602001206125a5565b905060006122448284602001516125bf565b90503373ffffffffffffffffffffffffffffffffffffffff168173ffffffffffffffffffffffffffffffffffffffff16146122ab576040517f3093a27700000000000000000000000000000000000000000000000000000000815260040160405180910390fd5b60025487106122ef576040517f08c379a00000000000000000000000000000000000000000000000000000000081526004016122e690613d61565b60405180910390fd5b60006005600089815260200190815260200160002090503373ffffffffffffffffffffffffffffffffffffffff168160000160009054906101000a900473ffffffffffffffffffffffffffffffffffffffff1673ffffffffffffffffffffffffffffffffffffffff1614612398576040517f08c379a000000000000000000000000000000000000000000000000000000000815260040161238f906144d2565b60405180910390fd5b6000600760008a815260200190815260200160002060008973ffffffffffffffffffffffffffffffffffffffff1673ffffffffffffffffffffffffffffffffffffffff168152602001908152602001600020905088816005015414612432576040517f08c379a00000000000000000000000000000000000000000000000000000000081526004016124299061453e565b60405180910390fd5b612444816001015488600001516125eb565b955050505050509392505050565b6007602052816000526040600020602052806000526040600020600091509150508060000160009054906101000a900473ffffffffffffffffffffffffffffffffffffffff16908060010154908060020154908060030154908060040154908060050154908060060160009054906101000a900460ff16905087565b60006124d982612725565b6124ea576124e76000612591565b91505b600082905060006124fa82612732565b90506000608073ffffffffffffffffffffffffffffffffffffffff166373cc01546004846040518363ffffffff1660e01b815260040161253b929190614645565b602060405180830381865afa158015612558573d6000803e3d6000fd5b505050506040513d601f19601f8201168201806040525081019061257c919061468a565b90506125878161278f565b9350505050919050565b600061259e826004612799565b9050919050565b60006125b86125b261283b565b836128f2565b9050919050565b6000806000806125cf8686612933565b9250925092506125df828261298f565b82935050505092915050565b60606125f683612af3565b612607576126046000612b00565b92505b600083905061261860008285612b14565b91505092915050565b60006126308260000151612bca565b9050919050565b600061264283612725565b612653576126506000612591565b92505b61265c82612725565b61266d5761266a6000612591565b91505b6000839050600083905060006126a160048484608073ffffffffffffffffffffffffffffffffffffffff16622df619612bde565b905080935050505092915050565b60606126e560007f0000000000000000000000000000000000000000000000000000000000000000612c7290919063ffffffff16565b905090565b606061272060017f0000000000000000000000000000000000000000000000000000000000000000612c7290919063ffffffff16565b905090565b6000808214159050919050565b6060602067ffffffffffffffff81111561274f5761274e6130b3565b5b6040519080825280601f01601f1916602001820160405280156127815781602001600182028036833780820191505090505b509050816020820152919050565b6000819050919050565b60006060608073ffffffffffffffffffffffffffffffffffffffff166319e1c5c46127c386612732565b856040518363ffffffff1660e01b81526004016127e19291906146b7565b600060405180830381865afa1580156127fe573d6000803e3d6000fd5b505050506040513d6000823e3d601f19601f820116820180604052508101906128279190614757565b905061283281612d22565b91505092915050565b60007f000000000000000000000000000000000000000000000000000000000000000073ffffffffffffffffffffffffffffffffffffffff163073ffffffffffffffffffffffffffffffffffffffff161480156128b757507f000000000000000000000000000000000000000000000000000000000000000046145b156128e4577f000000000000000000000000000000000000000000000000000000000000000090506128ef565b6128ec612d30565b90505b90565b60006040517f190100000000000000000000000000000000000000000000000000000000000081528360028201528260228201526042812091505092915050565b600080600060418451036129785760008060006020870151925060408701519150606087015160001a905061296a88828585612dc6565b955095509550505050612988565b60006002855160001b9250925092505b9250925092565b600060038111156129a3576129a26147a0565b5b8260038111156129b6576129b56147a0565b5b0315612aef57600160038111156129d0576129cf6147a0565b5b8260038111156129e3576129e26147a0565b5b03612a1a576040517ff645eedf00000000000000000000000000000000000000000000000000000000815260040160405180910390fd5b60026003811115612a2e57612a2d6147a0565b5b826003811115612a4157612a406147a0565b5b03612a86578060001c6040517ffce698f7000000000000000000000000000000000000000000000000000000008152600401612a7d91906135f6565b60405180910390fd5b600380811115612a9957612a986147a0565b5b826003811115612aac57612aab6147a0565b5b03612aee57806040517fd78bce0c000000000000000000000000000000000000000000000000000000008152600401612ae591906147cf565b60405180910390fd5b5b5050565b6000808214159050919050565b6000612b0d826000612799565b9050919050565b6060608073ffffffffffffffffffffffffffffffffffffffff1663a1848ff385612b3d86612732565b85604051602001612b4e919061480b565b6040516020818303038152906040526040518463ffffffff1660e01b8152600401612b7b93929190614826565b600060405180830381865afa158015612b98573d6000803e3d6000fd5b505050506040513d6000823e3d601f19601f82011682018060405250810190612bc191906148db565b90509392505050565b6000612bd7826000612eba565b9050919050565b60006060838388612bee89612732565b612bf789612732565b6040518463ffffffff1660e01b8152600401612c1593929190614826565b600060405180830381865afa158015612c32573d6000803e3d6000fd5b505050506040513d6000823e3d601f19601f82011682018060405250810190612c5b9190614757565b9050612c6681612f54565b91505095945050505050565b606060ff60001b8314612c8f57612c8883612f62565b9050612d1c565b818054612c9b90614068565b80601f0160208091040260200160405190810160405280929190818152602001828054612cc790614068565b8015612d145780601f10612ce957610100808354040283529160200191612d14565b820191906000526020600020905b815481529060010190602001808311612cf757829003601f168201915b505050505090505b92915050565b600060208201519050919050565b60007f8b73c3c69bb8fe3d512ecc4cf759cc79239f7b179b0ffacaa9a75d522b39400f7f00000000000000000000000000000000000000000000000000000000000000007f00000000000000000000000000000000000000000000000000000000000000004630604051602001612dab959493929190614924565b60405160208183030381529060405280519060200120905090565b60008060007f7fffffffffffffffffffffffffffffff5d576e7357a4501ddfe92f46681b20a08460001c1115612e06576000600385925092509250612eb0565b600060018888888860405160008152602001604052604051612e2b9493929190614977565b6020604051602081039080840390855afa158015612e4d573d6000803e3d6000fd5b505050602060405103519050600073ffffffffffffffffffffffffffffffffffffffff168173ffffffffffffffffffffffffffffffffffffffff1603612ea157600060016000801b93509350935050612eb0565b8060008060001b935093509350505b9450945094915050565b60006060608073ffffffffffffffffffffffffffffffffffffffff16635fa55ca784866040518363ffffffff1660e01b8152600401612efa929190614645565b600060405180830381865afa158015612f17573d6000803e3d6000fd5b505050506040513d6000823e3d601f19601f82011682018060405250810190612f409190614757565b9050612f4b81612d22565b91505092915050565b600060208201519050919050565b60606000612f6f83612fd6565b90506000602067ffffffffffffffff811115612f8e57612f8d6130b3565b5b6040519080825280601f01601f191660200182016040528015612fc05781602001600182028036833780820191505090505b5090508181528360208201528092505050919050565b60008060ff8360001c169050601f81111561301d576040517fb3512b0c00000000000000000000000000000000000000000000000000000000815260040160405180910390fd5b80915050919050565b6000604051905090565b600080fd5b600080fd5b6000819050919050565b61304d8161303a565b811461305857600080fd5b50565b60008135905061306a81613044565b92915050565b60006020828403121561308657613085613030565b5b60006130948482850161305b565b91505092915050565b600080fd5b6000601f19601f8301169050919050565b7f4e487b7100000000000000000000000000000000000000000000000000000000600052604160045260246000fd5b6130eb826130a2565b810181811067ffffffffffffffff8211171561310a576131096130b3565b5b80604052505050565b600061311d613026565b905061312982826130e2565b919050565b600080fd5b6000819050919050565b61314681613133565b811461315157600080fd5b50565b6000813590506131638161313d565b92915050565b600080fd5b600080fd5b600067ffffffffffffffff82111561318e5761318d6130b3565b5b613197826130a2565b9050602081019050919050565b82818337600083830152505050565b60006131c66131c184613173565b613113565b9050828152602081018484840111156131e2576131e161316e565b5b6131ed8482856131a4565b509392505050565b600082601f83011261320a57613209613169565b5b813561321a8482602086016131b3565b91505092915050565b6000604082840312156132395761323861309d565b5b6132436040613113565b9050600061325384828501613154565b600083015250602082013567ffffffffffffffff8111156132775761327661312e565b5b613283848285016131f5565b60208301525092915050565b600080604083850312156132a6576132a5613030565b5b60006132b48582860161305b565b925050602083013567ffffffffffffffff8111156132d5576132d4613035565b5b6132e185828601613223565b9150509250929050565b600081519050919050565b600082825260208201905092915050565b60005b8381101561332557808201518184015260208101905061330a565b60008484015250505050565b600061333c826132eb565b61334681856132f6565b9350613356818560208601613307565b61335f816130a2565b840191505092915050565b600060208201905081810360008301526133848184613331565b905092915050565b6000602082840312156133a2576133a161309d565b5b6133ac6020613113565b9050600082013567ffffffffffffffff8111156133cc576133cb61312e565b5b6133d8848285016131f5565b60008301525092915050565b600080600080600060a08688031215613400576133ff613030565b5b600086013567ffffffffffffffff81111561341e5761341d613035565b5b61342a8882890161338c565b955050602086013567ffffffffffffffff81111561344b5761344a613035565b5b6134578882890161338c565b945050604086013567ffffffffffffffff81111561347857613477613035565b5b6134848882890161338c565b935050606086013567ffffffffffffffff8111156134a5576134a4613035565b5b6134b18882890161338c565b92505060806134c28882890161305b565b9150509295509295909350565b600073ffffffffffffffffffffffffffffffffffffffff82169050919050565b6000819050919050565b600061351461350f61350a846134cf565b6134ef565b6134cf565b9050919050565b6000613526826134f9565b9050919050565b60006135388261351b565b9050919050565b6135488161352d565b82525050565b6000602082019050613563600083018461353f565b92915050565b6000613574826134cf565b9050919050565b61358481613569565b811461358f57600080fd5b50565b6000813590506135a18161357b565b92915050565b600080604083850312156135be576135bd613030565b5b60006135cc85828601613592565b92505060206135dd8582860161305b565b9150509250929050565b6135f08161303a565b82525050565b600060208201905061360b60008301846135e7565b92915050565b60006fffffffffffffffffffffffffffffffff82169050919050565b61363681613611565b811461364157600080fd5b50565b6000813590506136538161362d565b92915050565b600067ffffffffffffffff821115613674576136736130b3565b5b61367d826130a2565b9050602081019050919050565b600061369d61369884613659565b613113565b9050828152602081018484840111156136b9576136b861316e565b5b6136c48482856131a4565b509392505050565b600082601f8301126136e1576136e0613169565b5b81356136f184826020860161368a565b91505092915050565b60008060008060008060c0878903121561371757613716613030565b5b600087013567ffffffffffffffff81111561373557613734613035565b5b61374189828a0161338c565b965050602087013567ffffffffffffffff81111561376257613761613035565b5b61376e89828a0161338c565b955050604087013567ffffffffffffffff81111561378f5761378e613035565b5b61379b89828a0161338c565b945050606087013567ffffffffffffffff8111156137bc576137bb613035565b5b6137c889828a0161338c565b93505060806137d989828a01613644565b92505060a087013567ffffffffffffffff8111156137fa576137f9613035565b5b61380689828a016136cc565b9150509295509295509295565b60008060008060008060c087890312156138305761382f613030565b5b600061383e89828a0161305b565b965050602087013567ffffffffffffffff81111561385f5761385e613035565b5b61386b89828a0161338c565b955050604087013567ffffffffffffffff81111561388c5761388b613035565b5b61389889828a0161338c565b945050606087013567ffffffffffffffff8111156138b9576138b8613035565b5b6138c589828a0161338c565b935050608087013567ffffffffffffffff8111156138e6576138e5613035565b5b6138f289828a0161338c565b92505060a061390389828a01613644565b9150509295509295509295565b60008060006060848603121561392957613928613030565b5b60006139378682870161305b565b935050602061394886828701613592565b925050604084013567ffffffffffffffff81111561396957613968613035565b5b61397586828701613223565b9150509250925092565b60007fff0000000000000000000000000000000000000000000000000000000000000082169050919050565b6139b48161397f565b82525050565b6139c381613569565b82525050565b6139d281613133565b82525050565b600081519050919050565b600082825260208201905092915050565b6000819050602082019050919050565b613a0d8161303a565b82525050565b6000613a1f8383613a04565b60208301905092915050565b6000602082019050919050565b6000613a43826139d8565b613a4d81856139e3565b9350613a58836139f4565b8060005b83811015613a89578151613a708882613a13565b9750613a7b83613a2b565b925050600181019050613a5c565b5085935050505092915050565b600060e082019050613aab600083018a6139ab565b8181036020830152613abd8189613331565b90508181036040830152613ad18188613331565b9050613ae060608301876135e7565b613aed60808301866139ba565b613afa60a08301856139c9565b81810360c0830152613b0c8184613a38565b905098975050505050505050565b600060208284031215613b3057613b2f613030565b5b6000613b3e84828501613592565b91505092915050565b60008115159050919050565b613b5c81613b47565b82525050565b6000602082019050613b776000830184613b53565b92915050565b6000613b98613b93613b8e8461303a565b6134ef565b61303a565b9050919050565b613ba881613b7d565b82525050565b613bb781613611565b82525050565b613bc681613b7d565b82525050565b600061010082019050613be2600083018b6139ba565b613bef602083018a6135e7565b613bfc6040830189613b9f565b613c096060830188613b9f565b613c166080830187613b9f565b613c2360a0830186613b9f565b613c3060c0830185613bae565b613c3d60e0830184613bbd565b9998505050505050505050565b60008060408385031215613c6157613c60613030565b5b6000613c6f8582860161305b565b9250506020613c8085828601613592565b9150509250929050565b600060ff82169050919050565b613ca081613c8a565b82525050565b600060e082019050613cbb600083018a6139ba565b613cc86020830189613b9f565b613cd56040830188613b9f565b613ce26060830187613b9f565b613cef6080830186613b9f565b613cfc60a08301856135e7565b613d0960c0830184613c97565b98975050505050505050565b7f536572766572206e6f7420666f756e6400000000000000000000000000000000600082015250565b6000613d4b6010836132f6565b9150613d5682613d15565b602082019050919050565b60006020820190508181036000830152613d7a81613d3e565b9050919050565b7f4f6e6c792074686520736572766572206f776e65722063616e2077697468647260008201527f61772066756e6473000000000000000000000000000000000000000000000000602082015250565b6000613ddd6028836132f6565b9150613de882613d81565b604082019050919050565b60006020820190508181036000830152613e0c81613dd0565b9050919050565b6000604082019050613e2860008301856139ba565b613e3560208301846135e7565b9392505050565b613e4581613b47565b8114613e5057600080fd5b50565b600081519050613e6281613e3c565b92915050565b600060208284031215613e7e57613e7d613030565b5b6000613e8c84828501613e53565b91505092915050565b7f5472616e73666572206661696c65640000000000000000000000000000000000600082015250565b6000613ecb600f836132f6565b9150613ed682613e95565b602082019050919050565b60006020820190508181036000830152613efa81613ebe565b9050919050565b6000604082019050613f1660008301856139c9565b613f2360208301846139c9565b9392505050565b7f596f7572206e6f742077686974656c6973746564000000000000000000000000600082015250565b6000613f606014836132f6565b9150613f6b82613f2a565b602082019050919050565b60006020820190508181036000830152613f8f81613f53565b9050919050565b6000606082019050613fab60008301866139ba565b613fb860208301856139ba565b613fc560408301846135e7565b949350505050565b7f5061796d656e7420746f20636f6e7472616374206661696c6564000000000000600082015250565b6000614003601a836132f6565b915061400e82613fcd565b602082019050919050565b6000602082019050818103600083015261403281613ff6565b9050919050565b7f4e487b7100000000000000000000000000000000000000000000000000000000600052602260045260246000fd5b6000600282049050600182168061408057607f821691505b60208210810361409357614092614039565b5b50919050565b7f43616c6c6572206973206e6f7420616e2061646d696e00000000000000000000600082015250565b60006140cf6016836132f6565b91506140da82614099565b602082019050919050565b600060208201905081810360008301526140fe816140c2565b9050919050565b60008190508160005260206000209050919050565b60006020601f8301049050919050565b600082821b905092915050565b6000600883026141677fffffffffffffffffffffffffffffffffffffffffffffffffffffffffffffffff8261412a565b614171868361412a565b95508019841693508086168417925050509392505050565b6000819050919050565b61419c83613b7d565b6141b06141a882614189565b848454614137565b825550505050565b600090565b6141c56141b8565b6141d0818484614193565b505050565b5b818110156141f4576141e96000826141bd565b6001810190506141d6565b5050565b601f8211156142395761420a81614105565b6142138461411a565b81016020851015614222578190505b61423661422e8561411a565b8301826141d5565b50505b505050565b600082821c905092915050565b600061425c6000198460080261423e565b1980831691505092915050565b6000614275838361424b565b9150826002028217905092915050565b61428e826132eb565b67ffffffffffffffff8111156142a7576142a66130b3565b5b6142b18254614068565b6142bc8282856141f8565b600060209050601f8311600181146142ef57600084156142dd578287015190505b6142e78582614269565b86555061434f565b601f1984166142fd86614105565b60005b8281101561432557848901518255600182019150602085019450602081019050614300565b86831015614342578489015161433e601f89168261424b565b8355505b6001600288020188555050505b505050505050565b7f4e487b7100000000000000000000000000000000000000000000000000000000600052601160045260246000fd5b60006143918261303a565b91507fffffffffffffffffffffffffffffffffffffffffffffffffffffffffffffffff82036143c3576143c2614357565b5b600182019050919050565b7f4f6e6c792074686520736572766572206f776e65722063616e206d6f6469667960008201527f2064657461696c73000000000000000000000000000000000000000000000000602082015250565b600061442a6028836132f6565b9150614435826143ce565b604082019050919050565b600060208201905081810360008301526144598161441d565b9050919050565b7f4f6e6c792074686520736572766572206f776e65722063616e2076696577206360008201527f6c69656e7420696e666f00000000000000000000000000000000000000000000602082015250565b60006144bc602a836132f6565b91506144c782614460565b604082019050919050565b600060208201905081810360008301526144eb816144af565b9050919050565b7f436c69656e7420686173206e6f74207061696420666f72206163636573730000600082015250565b6000614528601e836132f6565b9150614533826144f2565b602082019050919050565b600060208201905081810360008301526145578161451b565b9050919050565b7f4f6e6c792074686520736572766572206f776e65722063616e206d6f6469667960008201527f2064617461000000000000000000000000000000000000000000000000000000602082015250565b60006145ba6025836132f6565b91506145c58261455e565b604082019050919050565b600060208201905081810360008301526145e9816145ad565b9050919050565b600081519050919050565b600082825260208201905092915050565b6000614617826145f0565b61462181856145fb565b9350614631818560208601613307565b61463a816130a2565b840191505092915050565b600060408201905061465a6000830185613c97565b818103602083015261466c818461460c565b90509392505050565b60008151905061468481613044565b92915050565b6000602082840312156146a05761469f613030565b5b60006146ae84828501614675565b91505092915050565b600060408201905081810360008301526146d1818561460c565b90506146e06020830184613c97565b9392505050565b60006146fa6146f584613173565b613113565b9050828152602081018484840111156147165761471561316e565b5b614721848285613307565b509392505050565b600082601f83011261473e5761473d613169565b5b815161474e8482602086016146e7565b91505092915050565b60006020828403121561476d5761476c613030565b5b600082015167ffffffffffffffff81111561478b5761478a613035565b5b61479784828501614729565b91505092915050565b7f4e487b7100000000000000000000000000000000000000000000000000000000600052602160045260246000fd5b60006020820190506147e460008301846139c9565b92915050565b6000819050919050565b61480561480082613133565b6147ea565b82525050565b600061481782846147f4565b60208201915081905092915050565b600060608201905061483b6000830186613c97565b818103602083015261484d818561460c565b90508181036040830152614861818461460c565b9050949350505050565b600061487e61487984613659565b613113565b90508281526020810184848401111561489a5761489961316e565b5b6148a5848285613307565b509392505050565b600082601f8301126148c2576148c1613169565b5b81516148d284826020860161486b565b91505092915050565b6000602082840312156148f1576148f0613030565b5b600082015167ffffffffffffffff81111561490f5761490e613035565b5b61491b848285016148ad565b91505092915050565b600060a08201905061493960008301886139c9565b61494660208301876139c9565b61495360408301866139c9565b61496060608301856135e7565b61496d60808301846139ba565b9695505050505050565b600060808201905061498c60008301876139c9565b6149996020830186613c97565b6149a660408301856139c9565b6149b360608301846139c9565b9594505050505056fea2646970667358221220223e5797e8e34e870951aeda1dac27d297c34bc4759367e41c22e1c3b7fedd2564736f6c63430008180033",
  "linkReferences": {},
  "deployedLinkReferences": {}
}